:020000040800F2
:10000000A8080020CD010008D72B000845290008CA
:10001000D52B000891040008C13000080000000042
:10002000000000000000000000000000112D00088A
:10003000D704000800000000D92B0008132D000889
:10004000E7010008E7010008E7010008E7010008F0
:10005000E7010008E7010008E7010008E7010008E0
:10006000E7010008E7010008E7010008950400081F
:10007000E7010008E7010008A1040008E701000803
:10008000E7010008E7010008E7010008E7010008B0
:10009000E7010008E7010008E7010008E7010008A0
:1000A000E7010008E7010008E7010008E701000890
:1000B000952D0008A12D0008E7010008E7010008C0
:1000C000E7010008E7010008E7010008E701000870
:1000D000E7010008B5300008E7010008E701000863
:1000E000E7010008E7010008E7010008E701000850
:1000F000E7010008E7010008E7010008E701000840
:10010000E7010008E7010008E7010008E70100082F
:10011000E7010008E7010008E7010008E70100081F
:10012000E7010008E7010008E7010008E70100080F
:1001300000F002F800F03AF80AA090E8000C8244BF
:100140008344AAF10107DA4501D100F02FF8AFF29C
:10015000090EBAE80F0013F0010F18BFFB1A43F0A5
:10016000010318470831000028310000103A24BF6D
:1001700078C878C1FAD8520724BF30C830C144BF0C
:1001800004680C607047000000230024002500264E
:10019000103A28BF78C1FBD8520728BF30C148BFEA
:1001A0000B6070471FB51FBD10B510BD00F06BF898
:1001B0001146FFF7F7FF02F0AFFF00F089F803B434
:1001C000FFF7F2FF03BC00F08DF8000009488047FC
:1001D00009480047FEE7FEE7FEE7FEE7FEE7FEE729
:1001E000FEE7FEE7FEE7FEE704480549054A064B41
:1001F00070470000912D000831010008A80200207E
:10020000A8080020A8040020A8040020B2F12003C0
:100210000AD5C2F1200320FA02F001FA03F321FA11
:1002200002F140EA0300704721FA03F04FF00001A9
:1002300070474FF0000200B51346944696462039A9
:1002400022BFA0E80C50A0E80C50B1F12001BFF48F
:10025000F7AF090728BFA0E80C5048BF0CC05DF8F5
:1002600004EB890028BF40F8042B08BF704748BF43
:1002700020F8022B11F0804F18BF00F8012B7047B7
:10028000704770477047754600F028F8AE46050085
:100290006946534620F00700854618B020B5FFF7A1
:1002A000A3FFBDE820404FF000064FF000074FF0DD
:1002B00000084FF0000B21F00701AC46ACE8C00984
:1002C000ACE8C009ACE8C009ACE8C0098D4670478D
:1002D0000446AFF300802046FFF771FF00487047E7
:1002E0004802002001491820ABBEFEE726000200AC
:1002F0007047000070B5044600688168C943C907AB
:1003000017D1816821F00101816000F0C7FF054627
:100310000AE000BF00F0C2FF401B022804D9206899
:100320008068C043C00706D020688068C043C0070B
:10033000F0D0002070BDA06A40F01000A062E06A1A
:1003400040F00100E062012070BD10B50146406A36
:10035000826A12F0500F05D0006A026BBDE81040AF
:1003600008461047816A41F400718162016889681A
:10037000C1F3424107290CD1017B51B9816A21F4B3
:1003800080718162816AC90403D4816A41F00101EC
:10039000816200F017FA10BD10B5406A816A41F021
:1003A00040018162C16A41F00401C16200F00CFAAF
:1003B00010BD10B5406A00F006FA10BDF8B5002671
:1003C0000446009600688168C943C9072DD081683A
:1003D00041F001018160164816490068B0FBF1F058
:1003E00000E0401E00900028FBD100F057FF0546BA
:1003F00016E000BF00F052FF401B022810D9206811
:100400008068C043C0070BD0A06A40F01000A06213
:10041000E06A40F00100E06284F824600120F8BD49
:1004200020688068C043C007E4D10020F8BD000008
:100430004000002040420F0038B541F080001546D2
:100440008DF8000000F014F84FF6FF7423460122E7
:100450006946064801F05BFC234601222946034811
:1004600001F0A8FB00F00CF838BD0000B800002037
:1004700000221021014800F00BBF000000080140DD
:1004800001221021014800F003BF000000080140D4
:10049000FEE70000014800F0B3BB0000740000203C
:1004A000014800F0ADBB0000E401002030B590F839
:1004B00040500124AC40C56B6C60046863604368C5
:1004C000102B036803D099600068C26030BD9A6049
:1004D0000068C16030BD704772B6FEE70649002073
:1004E000C8610648016941F004010161016941F0F8
:1004F00040010161704700002802002000200240F6
:10050000064A0021D16106490A6942F002020A61E5
:100510004861086940F040000861704728020020E7
:1005200000200240044B0022DA61044A136943F0C0
:10053000010313610180704728020020002002405F
:1005400014480022C168CB06134904D5CA6942F099
:100550000202CA611022C3685B0705D5CB6943F06C
:100560000103CB6142F00402C369DB0707D0CB690A
:1005700043F00403CB61C16921F00101C161A2F51F
:100580008071013901D0C2607047C16921F0010159
:10059000C1617047002002402802002070B5054666
:1005A00000F07CFE0646114C09E0681C07D025B11E
:1005B00000F074FE801BA84201D9032070BDE068E2
:1005C000C007F2D1E068800601D52020E060E06835
:1005D000C00605D4E069C00702D1E068400703D532
:1005E000FFF7AEFF012070BD002070BD002002406B
:1005F000F8B500250446009590F82400012808D09D
:10060000012084F824002046FFF774FE060002D083
:1006100053E00220F8BDA06A20F4885040F00200A8
:10062000A062022000F0D8FE26490968B1FBF0F074
:10063000400000E0401E00900028FBD12046FFF75C
:10064000BDFE2068816841F00801816000F026FE4F
:10065000074608E000F022FEC01B0A2803D92068E4
:100660008068000715D4206880680007F2D42068ED
:10067000816841F00401816000F010FE074612E03D
:1006800000F00CFEC01B0A280DD9206880684007C6
:1006900009D5A06A20F0020040F01000A06284F8A2
:1006A00024500120F8BD206880684007E8D4A06A83
:1006B00020F0020040F00100A06284F8245030468F
:1006C000F8BD000040000020F8B50024009490F828
:1006D00024202546012A12D0012280F824204A68CD
:1006E0001F23072A0DD20668776B521E02EB820287
:1006F00093409F430B6893401F43776319E00220A8
:10070000F8BD06680D2A0AD2376BD21F02EB8202AF
:1007100093409F430B6893401F43376309E0F76A98
:100720000D3A02EB820293409F430B6893401F43B4
:10073000F7620A68072306680A2A0AD3F7680A3AA2
:1007400002EB420293409F438B6893401F43F76044
:1007500008E0376902EB420293409F438B68934065
:100760001F4337610A68102A01D0112A20D1124B89
:1007700002689A4217D193681B0219D4936843F414
:10078000000393600968102912D10C490C4A0968CA
:10079000B1FBF2F101EB8101490000E0491E00913B
:1007A0000029FBD104E0816A41F02001816201242B
:1007B00080F824502046F8BD00240140400000206D
:1007C00040420F0070477047704700002DE9F0412C
:1007D00004004FF0000514D0A06A002628B9E66294
:1007E00084F82460204600F083F82046FFF782FD5D
:1007F000A16A01F01001014304D0A06A40F010008A
:10080000A0626BE0A16A21F4885141F00201A1626B
:10081000334923688B42E16904D1B1F5402F01D1FE
:100820004FF40021277B4FF4807C41EA4702616846
:100830000A43A168614509D0012907D05FF0000192
:1008400094F814E0BEF1010F02D00AE06146F7E728
:10085000C7B1A76A47F02007A762E76A47F0010718
:10086000E7625F6827F469470F435F602368996810
:100870001C4F394011439960A16861450BD0012993
:1008800009D00CE0DFF860E0A7690EEB47370F43B3
:1008900047F40061E5E7218A0D05A5F5801521687B
:1008A000CB6A23F470032B43CB62216889680F4B1A
:1008B0001940914208D1E662A16A21F0020141F09B
:1008C0000101A162BDE8F081A06A20F0020040F0C1
:1008D0001000A062E06A40F00100E0620120F1E750
:1008E000003C0140FDF7E1FF00E0FFFFFE0E1FFFAF
:1008F00070B586B0002506460095019502950395D2
:100900000068194988422DD11849886940F400705F
:100910008861886900F400700490886940F01000D4
:1009200088618869694600F01000049015200090E5
:10093000032001900E4800F0AFFB0F4C0D48C4E9B6
:1009400000058020C4E9025020202561C4E905503B
:100950000002E061204600F077FA08B1FFF7BCFD25
:100960003462666206B070BD00240140001002408F
:100970000010014008000240740000202DE9F047FB
:10098000894604463B4900683B4F0E1D904688420D
:1009900001D0B84207D1306810F4702F03D0012580
:1009A0002846BDE8F08794F8240001280CD00120E7
:1009B00084F824002046FFF701FD05004FF00000F9
:1009C00004D084F82400EBE70220EAE7A16A40F6AD
:1009D0000162914341F48071A1622168B94218D14A
:1009E000326812F4702F14D0A16A41F48011A16210
:1009F0003168490505D5A16A21F4005141F48051BF
:100A0000A162A16AC9040AD5E16A21F00601E16286
:100A100006E0A26A22F48012A2624968E9E7E06275
:100A200084F82400216A15488862216A1448C86243
:100A3000216A1448086321686FF00200086020688A
:100A4000816841F480718160216843464A464C3197
:100A5000206A00F037FA20688168C1F34241072913
:100A6000816803D041F48011816099E741F4A001CD
:100A7000FAE7000000240140002801404B03000871
:100A8000B30300089903000810B590F82110002264
:100A9000022905D00421816380F82020012010BDA7
:100AA00001680B6823F00E030B6001680B6823F0EC
:100AB00001030B6090F84030C46B012101FA03F38D
:100AC000636080F8211080F82020104610BD0000DF
:100AD0002DE9F05F90F821100024022903D00421B1
:100AE0008163012485E001680A6822F00E020A6031
:100AF00001680A6822F001020A603F4E3E4FB215BB
:100B0000DFF8F4C0DFF8F090DFF8ECA0DFF8E8B031
:100B1000DFF8E4E00168783F13011502ACF1640CE2
:100B2000A9F15009AAF13C0AABF1280BAEF1140E61
:100B30004FF48018B14227D9B9420ED0614512D086
:100B400049451DD0514518D0594518D0714501D19E
:100B5000424615E0294EB14201D1012210E0274E54
:100B60001436B14201D110220AE0244E2836B14297
:100B700006D0224A3C32914201D11A4600E02A4670
:100B80001E49091F0A602BE0B94213D0614517D0F6
:100B9000494522D051451DD059451DD0714501D13F
:100BA00042461AE0B14202D14FF0807215E0134E76
:100BB000B14201D1012210E0104E1436B14201D1F0
:100BC00010220AE00D4E2836B14206D00B4A3C32C4
:100BD000914201D11A4600E02A46074980394A600D
:100BE000012180F82110002180F82010416B01B113
:100BF00088472046BDE8F09F80000240080402407C
:100C00002DE9F05FC16B0A6801680B68046C4FF056
:100C1000040808FA04F8844D844E854FDFF814C2A6
:100C2000DFF81492DFF814A2DFF814B2DFF814E250
:100C300018EA020F65D05FEA437862D50A68920627
:100C400003D40A6822F004020A60DFF8F0814FF44E
:100C50008062016808F1140813011402414524D987
:100C6000A9420DD0B1420FD0B9421AD0614515D07A
:100C7000494515D0514501D1120312E0594501D122
:100C800004220EE0714501D140220AE06D4D143579
:100C9000A94206D06B4A2832914201D11A4600E09F
:100CA00022466749091F0A6029E0A94213D0B142D0
:100CB00015D0B94220D061451BD049451BD05145C4
:100CC00002D14FF4800217E0414502D14FF080621B
:100CD00012E0594501D104220EE0714501D14022B4
:100CE0000AE0584D1435A94206D0564A283291429E
:100CF00001D11A4600E022464B4908394A60C16AD0
:100D000071E04FF0020808FA04F818EA020F70D0F8
:100D10005FEA83786DD50A68920606D40A6822F0E5
:100D20000A020A60012180F82110DFF810814FF4D7
:100D30000072016808F1140813011402414524D916
:100D4000A9420DD0B1420FD0B9421AD0614515D099
:100D5000494515D0514501D1120312E0594501D141
:100D600002220EE0714501D120220AE0354D1435F2
:100D7000A94206D0334A2832914201D11A4600E0F6
:100D800022462F49091F0A6029E0A94213D0B14227
:100D900015D0B94220D061451BD049451BD05145E3
:100DA00002D14FF4001217E0414502D14FF000721A
:100DB00012E0594501D102220EE0714501D12022F5
:100DC0000AE0204D1435A94206D01E4A283291422D
:100DD00001D11A4600E02246134908394A60002131
:100DE00080F82010816A00291CD0BDE8F05F084718
:100DF000FFE70825A540154214D01A0712D50A6846
:100E000022F00E020A6090F84020C36B012101FA23
:100E100002F25A60816380F82110002180F82010CE
:100E2000016BE0E7BDE8F09F080002401C000240B3
:100E30003000024044000240580002406C00024072
:100E4000080402401C04024030B560B11A4B02682D
:100E500014219A4209D2194B1344B3FBF1F18900D2
:100E6000016417490AE0012030BD134B5B42134473
:100E7000B3FBF1F1890001640F490839C163022114
:100E800080F82110136843F6F0718B43F0E90114E8
:100E90002143D0E902452C4321430469214344699D
:100EA00021438469214319431160002141630122D8
:100EB00042770177084630BD08040240F8FFFDBFC5
:100EC0000000024070B5044690F82000002501287B
:100ED0000CD0012084F8200094F821600020012E1D
:100EE00006D084F820000225284670BD022070BD7F
:100EF000022684F82160A0632068066826F00106B7
:100F000006602046FFF7D2FAE06A002820680168F0
:100F100002D041F00E0106E021F0040101602068DA
:100F2000016841F00A0101602068016841F0010197
:100F30000160D9E72DE9F047054626480F4601260E
:100F4000017E01290FD00121814601762868DFF852
:100F500088804CF25034022808D0A2462046FFF781
:100F60001DFBA8B131E00220BDE8F0872046FFF765
:100F700015FB08BB0120FFF7B1FA2046FFF70EFB77
:100F8000D8F81010064621F00401C8F810101CE033
:100F90004FF0FF303860AC6811E02046FFF7B0FA40
:100FA0005046FFF7FBFAD8F81010060021F00201B6
:100FB000C8F8101001D03C6007E004F50064D5E9E2
:100FC000020100EBC120A042E7D8002189F81810E7
:100FD0003046C9E72802002000200240034801698A
:100FE00041F08001016100207047000000200240B4
:100FF0002DE9F05F07461C4888460024017E15460F
:101000001E46012909D00121814601764CF2503A51
:101010005046FFF7C3FA18B122E00220BDE8F09F66
:10102000012F02D0022F00D00427D346DFF83CA0C6
:10103000220128463146FFF7E9F881B208EB440067
:10104000FFF770FA5846FFF7A9FADAF8102022F0F5
:101050000102CAF8102018B9641CE4B2BC42E7D3FC
:10106000002289F81820D9E7280200200020024039
:10107000064900200A69120607D5054A4A60054A52
:101080004A600969090600D5012070470020024026
:1010900023016745AB89EFCD2DE9F84FDFF8C89103
:1010A000002409F1040A0AF1040B23460F270BF16F
:1010B000040ED1E00125A54006EA0502AA4276D138
:1010C000DFF8A8C14E68A6EB0C0866452BD00DDCF6
:1010D000032E34D005DC36B3012E19D0022E2FD1C9
:1010E0001BE0112E16D0122E2AD119E0B8F5881F58
:1010F00019D006DCB8F5803F15D0B8F5801F1FD198
:1011000011E0B8F5001F0ED0B8F5041F18D10AE0A1
:10111000CB6815E0CB681B1D12E0CB6808330FE0ED
:10112000CB680C330CE08B682BB1012B4FF008031C
:1011300003D0456104E0042302E0056100E00023E0
:10114000FF2A01D8064601E000F104064FEA8405B3
:1011500001D9A5F12005D6F8008007FA05FC28EA98
:101160000C0803FA05F548EA0508C6F800804D6842
:10117000ED0070D53E4DAE6946F00106AE61AD6939
:1011800024F0030605F0010500953A4D06EB050C29
:10119000DCF80850A607360F07FA06F825EA080516
:1011A000DFF8D480404503D14FF0000825E052E03D
:1011B000DFF8C880404502D14FF001081DE0DFF89C
:1011C000C080404502D14FF0020816E0DFF8B4803D
:1011D000404502D14FF003080FE0DFF8AC804045F6
:1011E00002D14FF0040808E0DFF8A080404502D1AA
:1011F0004FF0050801E04FF0060808FA06F848EA43
:101200000508CCF808804D68D9F80060ED034D461C
:1012100001D5164300E096432E604D68DAF8006071
:10122000AD03554601D5164300E096432E604D6848
:10123000DBF80060ED025D4601D5164300E0964301
:101240002E604D68DEF80060AD02754601D516438C
:1012500000E096432E60641C0A681646E2407FF464
:1012600029AFBDE8F88F0000000401400000111014
:10127000001002400000014000080140000C014045
:10128000001001400014014000180140001C014002
:101290000AB1016170470904FBE70000014880685A
:1012A0007047000034000020024881680278114431
:1012B0008160704734000020074810B5016841F094
:1012C00010010160032000F075F80F2000F006F80F
:1012D00000F024F8002010BD0020024070B50D4D34
:1012E00004464FF47A712878B1FBF0F00A49096896
:1012F000B1FBF0F000F0AFFE48B9102C07D200228D
:101300002146501E00F036F800206C6070BD0120B0
:1013100070BD000034000020400000200C4808B5DB
:10132000816941F001018161816901F00101009150
:10133000C16941F08051C161C06900F080500090E6
:101340000448416821F0E06141F08071416008BDCE
:101350000010024000000140002809DB00F01F02DD
:10136000012191404009800000F1E020C0F8001107
:1013700070470000F0B40E4B1B680C46C3F3022309
:10138000C3F10705042D00D90425191D072901D231
:10139000002300E0DB1E012606FA05F1491E21406C
:1013A00099409E40761E16403143F0BC01F089BE44
:1013B0000CED00E0064900F0070208684FF6FF0355
:1013C000184040EA0220034A1043086070470000BA
:1013D0000CED00E00000FA0510B52CA401461DCC70
:1013E00086B08DE81D002DA02D4C006804900020D3
:1013F00004292FD00BDC01292FD0022928D100F09D
:1014000071F96168C1F38131491C49001EE0082966
:1014100020D010291CD161682268D20118D5C1F3EF
:101420008342C9031DF8020009D5616804AAC1F30B
:101430004041515C1B4AB2FBF1F1484301E01A49BB
:1014400048436168490203D440000321B0FBF1F036
:1014500006B010BD00F056F9FAE7226AC2F3012186
:10146000012903D1920701D5C803F1E7022905D16B
:10147000626A920702D549F64040E9E70329E7D1BD
:1014800021688903E4D54FF22440E1E70203040513
:10149000060708090A0B0C0D0E0F101001020000C0
:1014A0000010024000127A0000093D002DE9F843C7
:1014B00005460078354CC00754D0E0690026C000CE
:1014C00008D4E06940F08050E061E069012600F056
:1014D000805000902E480168C90512D401688046EA
:1014E00041F480710160FFF7D9FE074605E000BFB7
:1014F000FFF7D4FEC01B642823D8D8F80000C0052D
:10150000F6D5206A10F4407021D0A98801F440710A
:1015100081421CD0206A1F49012220F440700A60D9
:1015200000220A602062C00711D0FFF7B7FE07460D
:1015300041F2883808E000BFFFF7B0FEC11B41450B
:1015400002D90320BDE8F883206A8007F4D5206A19
:10155000696820F44070084320621EB1E06920F001
:101560008050E0612878800705D56068A96820F47C
:101570004040084360602878C00605D56068696906
:1015800020F48000084360600020DBE70010024088
:1015900000700040400442422DE9F0470F4605002C
:1015A00061D0434E306800F00700B84209D230687D
:1015B00020F0070038433060306800F00700B84280
:1015C00051D128683B4C810712D5400703D560688C
:1015D00040F4E06060602878000703D5606840F45C
:1015E000605060606068A96820F0F00008436060A7
:1015F0002878C00728D06868012810D02168022800
:1016000010D0890700292EDA616821F00301014317
:101610006160FFF743FE804641F288390DE02168A2
:101620008903EFE78901EDE7FFF738FEA0EB08013A
:10163000494502D90320BDE8F0876068696800F079
:101640000C00B0EB810FEFD1306800F00700B8421A
:101650000BD9306820F0070038433060306800F064
:101660000700B84201D00120E5E72878400705D5FA
:101670006068E96820F4E06008436060287800074B
:1016800006D56068296920F4605040EAC1006060B6
:1016900000F038F86168084AC1F30311515CC84092
:1016A0000649086006480068FFF718FE0020C2E7F8
:1016B000002002400010024052320008400000208A
:1016C000380000200448054900684968044AC1F30D
:1016D0000221515CC84070474000002000100240C9
:1016E000623200080448054900684968044AC1F3A9
:1016F000C221515CC84070474000002000100240E9
:101700006232000812A185B00FC98DE80F0014A045
:10171000144A006804905168134801F00C03042B2C
:1017200010D0082B0ED1C1F38343C9031DF8030069
:101730000AD5516804AAC1F34041515C0A4A50439A
:10174000B0FBF1F005B0704708494843FAE70000E4
:1017500002030405060708090A0B0C0D0E0F1010F2
:10176000010200000010024000127A0000093D0052
:101770002DE9F84F040070D02078C04DC00749D043
:101780006868C0F38100012807D06868C0F3810051
:10179000022809D16868C00306D52868800339D5B6
:1017A00060680028E7D035E06068B0F5803F0BD076
:1017B00010B1B0F5A02F11D0286820F48030286037
:1017C000286820F4802002E0286840F480302860F7
:1017D000606890B1FFF762FD06460AE0286840F4B1
:1017E00080202860F0E700BFFFF758FD801B6428C9
:1017F00073D828688003F7D50CE0FFF74FFD064645
:1018000005E000BFFFF74AFD801B6428F0D8286878
:101810008003F7D420789A4E80074FF001094FF0EB
:10182000000839D5686810F00C0F07D06868C0F35D
:101830008100022809D16868C00306D4286880079F
:1018400014D52069012808D110E02069B0B1C6F88C
:101850000090FFF723FD074605E00AE1FFF71EFDB4
:10186000C01B0228C4D828688007F7D5286861699A
:1018700020F0F80040EAC10028600DE0C6F80080C2
:10188000FFF70CFD074604E0FFF708FDC01B022828
:1018900023D828688007F7D4207800072CD579480A
:1018A000A169D9B1C0F80090FFF7F8FC074604E041
:1018B000FFF7F4FCC01B02280FD8686A8007F7D531
:1018C00071484FF4FA510068B0FBF1F0009000BF8E
:1018D0000098411E0091FAD20EE080E0C0F800802E
:1018E000FFF7DCFC074604E0FFF7D8FCC01B02282A
:1018F00075D8686A8007F7D42078400760D5E86912
:101900000027C00008D4E86940F08050E861E86929
:10191000012700F0805000905C480168C90513D48D
:101920000168834641F480710160FFF7B7FC82468D
:1019300006E000BFFFF7B2FCA0EB0A0064284ED817
:10194000DBF80000C005F5D5E06801280AD008B131
:10195000052813D0286A20F001002862286A20F0A8
:10196000040002E0286A40F001002862E06841F2C9
:10197000883B98B1FFF792FC82460BE0286A40F062
:1019800004002862EEE700BFFFF788FCA0EB0A0125
:1019900059455AD8286A8007F6D50CE0FFF77EFC37
:1019A000824605E0FFF77AFCA0EB0A0159454CD8C6
:1019B000286A8007F6D41FB1E86920F08050E861FA
:1019C000E06988B36968C1F38101022944D0022823
:1019D000C6F8608004D0FFF761FC044638E034E0CC
:1019E000FFF75CFC074604E0FFF758FCC01B022829
:1019F0002BD828688001F7D4206AB0F5803F05D144
:101A00006868A16820F4003008436860D4E90801E0
:101A10000843696821F4741108436860C6F860904F
:101A2000FFF73CFC044606E025E000BFFFF736FC6C
:101A3000001B022809D828688001F7D51BE000BFE9
:101A4000FFF72CFC001B022802D90320BDE8F88F09
:101A500028688001F4D40EE00128F7D06868226A73
:101A600000F48031914204D1616A00F47010884220
:101A700001D00120EAE70020E8E700000010024062
:101A800000004242800442424000002000700040BA
:101A900070B5040009D0606A002540B12561656118
:101AA000A56294F8510040B10CE0012070BD60685F
:101AB000B0F5827FF4D0E561F2E784F8505020461B
:101AC00000F040F8022084F851002068016821F0FD
:101AD00040010160A088218900F4827001F4044172
:101AE0000843A18901F400610843217C01F002014F
:101AF0000843217D01F001010843218B01F40071AD
:101B00000843217F01F03801084394F8201001F0C8
:101B100080010843218D01F40051084321680860C9
:101B2000A069042101EA1040216848602068C16969
:101B300021F40061C1616565012084F85100002035
:101B400070BD000030B585B000240094019402946B
:101B5000039400681449884223D11448816941F4F0
:101B600080518161816901F480510491816941F062
:101B70000401816180690E4D00F004000490A020F2
:101B80000090022001900320039069462846FFF749
:101B900083FA4020CDE90004694628460294FFF705
:101BA0007BFA05B030BD000000300140001002405B
:101BB000000801402DE9F84F04464068002598468A
:101BC00016460F464FF0040BB0F5827F01D1A06896
:101BD00088B194F85000012818D0012084F85000F2
:101BE000FFF75CFB814694F851004FF0000A012892
:101BF0000ED0022582E084F851B013460A462046F2
:101C0000CDF8008000F036F9BDE8F88F0220FBE740
:101C1000002F72D0002E70D084F851B0C4F854A0B8
:101C2000A763A687E687C4F830A0A4F834A0A4F878
:101C300036A0C4F840A0C4F844A0A068B0F5004F96
:101C400009D12068016821F0400101602068016825
:101C500021F48041016020680168490603D40168CD
:101C600041F040010160E068D8B139E02068816846
:101C7000C90709D0007BA16B0870A06B401CA06352
:101C8000E08F401EE0870CE0FFF708FBA0EB0901A6
:101C9000414503D3B8F1FF3F03D036E0B8F1000F60
:101CA00033D0E08F0028E1D11DE020688168C907AA
:101CB00009D0C068A16B0880A06B801CA063E08F76
:101CC000401EE0870CE0FFF7E9FAA0EB090141456F
:101CD00003D3B8F1FF3F03D017E0B8F1000F14D0E1
:101CE000E08F0028E1D14A464146204600F075FFCA
:101CF00008B120206065606D00B10125012084F8E5
:101D0000510084F850A028467EE70325F6E72DE928
:101D1000F84F044690F8500000271D4616468946A5
:101D200001280DD04FF0010B84F850B0FFF7B6FA40
:101D3000804694F85100BA46012804D0022793E067
:101D40000220BDE8F88FB9F1000F73D0002E71D0DA
:101D5000032084F85100C4F854A0C4F83090A6863B
:101D6000E686C4F838A0A4F83CA0A4F83EA0C4F8C5
:101D700044A0C4F840A0A068B0F5004F09D1206885
:101D8000016821F0400101602068016841F4804150
:101D9000016020680168490603D4016841F04001F0
:101DA0000160E068B0F5006F606803D030B3012EC9
:101DB00024D041E008B1012E1CD1206B216800889D
:101DC000C86006E020688168890709D5216B098809
:101DD000C160206B801C2063E08E401EE08609E01D
:101DE000FFF75CFAA0EB0800A84202D3681C01D000
:101DF00031E07DB3E08E0028E4D120E0206B216843
:101E00000078087306E020688168890709D5216B8E
:101E100009780173206B401C2063E08E401EE08631
:101E20000AE0FFF73BFAA0EB0800A84203D3681CC6
:101E300002D010E017E06DB1E08E0028E3D14246F9
:101E40002946204600F0F7FE08B120206065A06812
:101E500018B106E0FFE7032706E02068C168806844
:101E60000090606D00B1012784F851B084F850A053
:101E7000384666E72DE9F84F044690F850000027F1
:101E80000A9E1D4692468B464FF0010901280ED04E
:101E9000012084F85000FFF701FA804694F85100C1
:101EA000616801280CD0B1F5827F07D102E00220E1
:101EB000BDE8F88FA16809B9042801D00227C2E063
:101EC000BBF1000F27D0BAF1000F24D01DB394F856
:101ED0005100042802D0052084F8510000206065DC
:101EE000C4F838A0E587A587C4F830B0E586A58694
:101EF0002064606420680168490603D4016841F0E9
:101F000040010160E068B0F5006F606805D0E8B39B
:101F1000012D46D07FE0012795E008B1012D39D190
:101F2000206B21680088C860206B801C2063E08ED5
:101F3000401EE0862EE02068816889070FD5E18E7B
:101F400069B1B9F1010F0AD1216B0988C160206B19
:101F5000801C2063E08E401EE0864FF00009206860
:101F60008168C9070CD0E18F51B1C068A16B0880AE
:101F7000A06B801CA063E08F401EE0874FF001093A
:101F8000FFF78CF9A0EB0800B04200E009E001D3B4
:101F9000701C50D1E08E0028CDD1E08F0028CAD12E
:101FA0003FE0206B216800780873206B401C2063A1
:101FB000E08E401EE0862EE02068816889070FD5FC
:101FC000E18E69B1B9F1010F0AD1216B0978017372
:101FD000206B401C2063E08E401EE0864FF000091D
:101FE00020688168C9070CD0E18F51B1C068A16B2E
:101FF0000870A06B401CA063E08F401EE0874FF08C
:102000000109FFF74BF9A0EB0800B04202D3701CA6
:1020100001D010E07EB1E08E0028CDD1E08F002805
:10202000CAD142463146204600F005FE28B10127BC
:102030002020606507E0032705E0A06818B9206844
:10204000C16880680090012084F85100002084F865
:10205000500038462CE710B5401EB0F1807F01D308
:10206000012010BD4FF0E02460610F21601701F0E6
:1020700028F80020A06107202061002010BD7047D3
:102080007047000070B590F83C20012A2CD0012444
:1020900080F83C40022280F83D2003685A689D6821
:1020A00022F070060A6832435A60104B02689A4266
:1020B0000ED00F4B9A420BD0B2F1804F08D00D4B8F
:1020C0009A4205D00C4B9A4202D00C4B9A4204D152
:1020D000496825F080031943916080F83D40002154
:1020E00080F83C10084670BD022070BD002C0140F5
:1020F000003401400004004000080040000C004093
:1021000010B5040003D094F83D0010B107E00120A1
:1021100010BD002084F83C00204600F01FF802208B
:1021200084F83D00211D206800F040FE012084F865
:10213000460084F83E0084F83F0084F8400084F8AC
:10214000410084F8420084F8430084F8440084F895
:10215000450084F83D00002010BD000008B501686E
:102160001448B1F1804F14D0134A914220D1C16973
:1021700041F00201C161C069002200F0020000903C
:1021800011461D20FFF7F6F81D20BDE80840FFF7B7
:10219000E3B8C16941F00101C161C069002200F0EA
:1021A0000100009011461C20FFF7E4F81C20ECE72A
:1021B00008BD0000001002400004004090F83D10EF
:1021C000012901D001207047022180F83D100168EB
:1021D000CA6842F00102CA6000680E4988420ED007
:1021E0000D4988420BD0B0F1804F08D00B4988428E
:1021F00005D00B49884202D00A49884204D181683F
:1022000001F00701062903D0016841F001010160D6
:1022100000207047002C01400034014000040040C1
:1022200000080040000C00400168CA6822F001026A
:10223000CA6001680A6A41F211131A4207D10A6A98
:102240009B101A4203D10A6822F001020A600121A0
:1022500080F83D100020704770B5044690F83C00AF
:10226000012817D0012584F83C50022084F83D0055
:102270002068826822F0770222F47F428260086838
:10228000502830D00DDC20284DD005DC98B3102824
:102290003BD148E0022070BD302844D0402834D1E2
:1022A00039E0602828D0702806D0B0F5805F2CD0A7
:1022B000B0F5005F29D10AE0CB68D1E9012120689F
:1022C00000F0BAFD2068816841F0770109E0CB6831
:1022D000D1E90121206800F0AFFD2068816841F458
:1022E0008041816011E0CA684968206800F0B6FD4D
:1022F0005021206807E016E0CA684968206800F0AD
:10230000BEFD6021206800F0A1FD84F83D50002052
:1023100084F83C0070BDCA684968206800F09EFDE2
:1023200040212068EFE7226801461046EBE770473E
:1023300070B50446006801694FF00005C94389077C
:1023400015D4C168C943890711D4E91E0161012070
:102350002077206880698007204602D0FFF7E7FFDA
:1023600004E000F098F8204600F096F82577206801
:102370000169C943490717D4C168C943490713D440
:102380006FF004010161022020772068806910F459
:10239000407F204602D0FFF7CAFF04E000F07BF840
:1023A000204600F079F8257720680169C9430907BC
:1023B00016D4C168C943090712D46FF0080101613E
:1023C000042020772068C0698007204602D0FFF7EC
:1023D000AEFF04E000F05FF8204600F05DF82577DE
:1023E00020680169C943C90617D4C168C943C90631
:1023F00013D46FF010010161082020772068C069B4
:1024000010F4407F204602D0FFF791FF04E000F077
:1024100042F8204600F040F8257720680169C9435A
:10242000C90708D1C168C943C90704D1891E016120
:10243000204600F033F820680169C943090609D431
:10244000C168C943090605D46FF0800101612046C7
:10245000FFF715FE20680169C943490609D4C16820
:10246000C943490605D46FF040010161204600F0E0
:1024700077F820680169C94389060BD4C168C9434C
:10248000890607D46FF0200101612046BDE8704045
:10249000FFF7F6BD70BD70477047000070B52D495D
:1024A000884255D12C4CE51CA0780126C0B30128E8
:1024B0004ED100BFD4E90301814246D2264A3221DF
:1024C0002C322648FDF7B8FF234E33212C36721CE0
:1024D0002248FDF7B1FFB21C34212048FDF7ACFFC4
:1024E000F21C35211D48FDF7A7FF30686A7800BA55
:1024F00020F0FF01F07801432878000440EA02262A
:10250000A8780643E06900F095FEE0693146001DB9
:10251000E061206900F08EFE2069001D206115E059
:10252000FFE7D4E9031088420CD229786A780904BD
:1025300041EA0221AA78114300F07CFE2069001DC7
:10254000206100E02670A670B4E726700020A0701D
:1025500070BD00005801002000000020B8000020DD
:102560007047704770470000F8B50268044610686D
:10257000D168536910F00F0F4FF0000554D003F0ED
:10258000010601F4907737435FD0C20705D0CA0532
:1025900003D5226C42F001022264420705D5DA0716
:1025A00003D0226C42F002022264820705D5DA07CA
:1025B00003D0226C42F004022264020707D501F026
:1025C0002002324303D0226C42F008022264226CC3
:1025D000002A35D0800604D5880602D5204600F0B2
:1025E00080FC20684069216CC0F3801001F0080174
:1025F0000143204625D000F05CFC20684169490673
:102600001BD5416921F040014161A06BA8B1584937
:102610004163A06BFEF75CFA002811D0A06B416B00
:1026200001B0BDE8F040084783060ED58B060CD5F7
:102630002046BDE8F84000F054BC2046FFF792FF6A
:10264000F8BDFFF78FFF2564F8BD266B2023012E10
:1026500052D1C60650D5CE064ED5106850680090AF
:10266000506940062AD5A16B086840680004000C38
:10267000EAD0A68D8642E7D9E0858869202818D05F
:10268000D06820F48070D0602068416921F0010199
:1026900041612068416921F04001416184F83E3088
:1026A00025632068C16821F01001C160A06BFEF7AE
:1026B000EBF9A08DE18D401A81B219E0A08DE18D7A
:1026C000401A81B2E08D0028BED00029BCD0D0686D
:1026D00020F49070D0602068426922F001024261CB
:1026E00084F83E3025632068C26822F01002C26080
:1026F0002046FFF736FFF8BD05062BD50D0629D578
:1027000094F83D002128F6D1A068B0F5805F01D192
:102710002069B0B1206A411C2162216800784860BC
:10272000E08C401E0004000CE084E4D12068C16805
:1027300021F08001C1602068C16841F04001C160A2
:10274000F8BD206A0088C0F308005060206A801C31
:102750002062E5E74006F3D54806F1D5D16820466A
:1027600021F04001D16084F83D3000F0EAF8F8BD76
:10277000A32E000870B5040004D094F83D00002595
:1027800010B106E0012070BD84F83C50204600F0F6
:1027900023F8242084F83D002068C16821F400510A
:1027A000C160204600F0F8FB2068016921F49041E7
:1027B00001612068416921F02A0141612068C168F6
:1027C00041F40051C1602564202084F83D0084F864
:1027D0003E00002070BD000070B586B000250646A2
:1027E000009501950295039500682349884241D1DF
:1027F0002249886940F480408861886900F48040FB
:102800000490886940F00400886188691C4C00F0DD
:1028100004000490481500900220019003200390CA
:1028200069462046FEF738FC2015CDE900056946CB
:1028300020460295FEF730FC134C12482060102011
:10284000C4E901058020C4E903052020C4E905503E
:10285000C001E0612046FEF7F7FA08B1FDF73CFE43
:1028600074630022114625206662FEF783FD252051
:10287000FEF772FD06B070BD003801400010024046
:102880000008014044000240E401002070470000BD
:102890002DE9F843044690F83D001F4616460D46C4
:1028A00020284CD1C5B1BEB194F83C00012846D0D7
:1028B000012084F83C004FF00008C4F8408021203B
:1028C00084F83D00FEF7EAFCA6848146E684A06811
:1028D000B0F5805F03D004E00120BDE8F8832069F3
:1028E00028B12E465FF0000584F83C800EE00026FB
:1028F000FAE78021204600F0ABFBA0B9AEB116F894
:10290000010B21684860E08C401EE084E08C4B465F
:102910004FF0000200970028EBD14FF04001204615
:1029200000F096FB30B10320D7E735F8020BC0F377
:102930000800E6E7202084F83D000020CDE70220D3
:10294000CBE77047FEE700003EB500211D4800912F
:1029500001911B4A02910260921582600124047366
:10296000017503254FF460220561C2614160FDF7E6
:102970002DFF08B1FDF7B0FD0C20CDE900040720C4
:10298000029069460F48FDF79FFE08B1FDF7A4FDD0
:102990000E2000900220019069460A48FDF794FE3F
:1029A00008B1FDF799FD0A20CDE900056946054803
:1029B000FDF78AFE002801D0FDF78EFD3EBD000028
:1029C00000240140440000200D4808B5416941F051
:1029D000010141614069002200F0010000901146B0
:1029E0000B20FEF7C7FC0B20FEF7B6FC00221146B9
:1029F0000E20FEF7BFFCBDE808400E20FEF7ACBC81
:102A00000010024070B586B000241C480094019468
:102A100002940394816941F020018161816901F090
:102A200020010491816941F010018161816901F007
:102A300010010491816941F004018161816901F013
:102A400004010491816941F00801816180690C4EA3
:102A500000F008004FF488750490002229463046A3
:102A6000FEF716FC01200095CDE901040220039039
:102A700069463046FEF710FB06B070BD00100240FC
:102A800000080140104810B50E4901604FF48271F2
:102A90004160002102228160C0E9031201224261EB
:102AA000520282610822C0E90721416281620A2143
:102AB000C162FEF7EDFF002803D0BDE81040FDF72E
:102AC0000BBD10BD00300140B800002010B586B02D
:102AD00000241748009401940294039404944FF046
:102AE00080410594016040F2CF21C0E90114132117
:102AF000C0E9031480218161FFF702FB08B1FDF7F3
:102B0000EBFC4FF48050009069460948FFF7A4FBA6
:102B100008B1FDF7E1FC049404A905480594FFF70A
:102B2000B1FA002801D0FDF7D7FC06B010BD0000B7
:102B30001001002010B586B00024174800940194BD
:102B40000294039404941349059401604721C0E959
:102B5000011440F23711C0E9031480218161FFF7AD
:102B6000CFFA08B1FDF7B8FC4FF4805000906946E9
:102B70000948FFF771FB08B1FDF7AEFC049404A906
:102B800005480594FFF77EFA002801D0FDF7A4FC64
:102B900006B010BD00040040580100200C4810B5DC
:102BA0000A4901604FF461214160002181600C22DB
:102BB000C160C0E904128161C161FFF7DBFD00283B
:102BC00003D0BDE81040FDF787BC10BD00380140C0
:102BD000A0010020FEE7FEE77047F8B50446406814
:102BE0004FF48273984217D1A0684FF48065B0F516
:102BF000004F01D0A8420FD12068066826F0400699
:102C000006606068984207D1A068A84204D100928B
:102C10000B460022012103E000920B460022802196
:102C2000204600F019F8002804D0606D40F0200024
:102C300060650320F8BD38B50B46009204460022BB
:102C4000802100F009F8002804D0606D40F02000D9
:102C50006065032038BD00002DE9F8431E4691460B
:102C600088460446089DFEF719FB401B351AFEF7FF
:102C700015FB074625480068C0F3CB30684338E0B1
:102C8000701C37D0FEF70AFBC01BA84203D215B157
:102C9000009860B32CE02068416821F0E0014160B9
:102CA0006068B0F5827F0BD1A068B0F5004F02D00C
:102CB000B0F5806F04D12068016821F04001016007
:102CC000A06AB0F5005F09D12068016821F40051C5
:102CD00001602068016841F400510160012084F81E
:102CE0005100002084F850000320BDE8F88300253F
:102CF000401E00902068816838EA010004D000215D
:102D00004945BDD10020F0E70121F9E7400000204E
:102D10007047FEF7C9BA30B595B028216846FDF76F
:102D200088FA14210AA8FDF784FA18210FA8FDF7E4
:102D300080FA01210804CDE9001000250295022443
:102D40000491CDE907404FF4E01009906846FEF782
:102D50000FFD08B172B6FEE70AA90F2081E8310025
:102D60004FF48060CDE90D0502210AA8FEF714FC9E
:102D700008B172B6FEE74FF4004011900F940FA80F
:102D8000FEF794FB002801D072B6FEE715B030BD07
:102D9000704700000148FFF7CBBA00001001002087
:102DA0000148FFF7C5BA000058010020F0B50268DD
:102DB0001C4B1D4D1D4E1E4F1E4C4FF0804C98421B
:102DC00009D0A04207D0604505D0A84203D0B04248
:102DD00001D0B84204D122F0700E4A6842EA0E02D5
:102DE000984209D0A04207D0604505D0A84203D040
:102DF000B04201D0B84203D122F44075CA682A43D8
:102E00004D6922F080022A4302608A68C2620A6821
:102E10008262984201D0A04201D109690163012177
:102E20004161F0BD002C014000040040000800405A
:102E3000000C00400034014010B5846842EA0322CF
:102E400024F47F440A432243826010BD826822F04A
:102E500070020A4342F007018160704710B5036AAF
:102E6000046A24F001040462846924F0F00444EA52
:102E7000021423F00A020A438461026210BD10B5F5
:102E8000036A23F0100303628369046A23F4704326
:102E900043EA023224F0A00343EA01118261016295
:102EA00010BD10B5406A0021C185C184FFF75AFBEF
:102EB00010BD0168CA6822F49072CA6001684A694C
:102EC00022F001024A61016B012904D10168CA683C
:102ED00022F01002CA60202180F83E100021016318
:102EE000704708B590F83E10222901D0022008BD95
:102EF00082684FF480539A4201D1016921B1816AFD
:102F00009A421BD04AB10AE00268816A5268C2F351
:102F100008020A80816A891C08E0026972B10268AD
:102F2000526802F07F020A70816A491C8162C18D79
:102F3000491E0904090CC18503D019E002685268D2
:102F4000F1E70168CA6822F02002CA600168CA6815
:102F500022F48072CA6001684A6922F001024A6163
:102F6000202180F83E10016B012903D0FFF78EFC71
:102F7000002008BD002101630168CA6822F0100228
:102F8000CA6001680A68D20602D50A6849680091D9
:102F9000818DFFF7E6FAEBE770B50446006801693A
:102FA000E26821F44051114301612169A06808439E
:102FB000616908432168CA6841F20C639A4302437D
:102FC000CA6020684169A26921F4407111434161DE
:102FD0001E492068884202D1FEF784FB01E0FEF71B
:102FE00071FB00EBC00101EB0012606864218000FE
:102FF000B2FBF0F3B3FBF1F36FF018067343B2FBCF
:10300000F0F5B2FBF0F605EB8305322303EB051573
:10301000B5FBF1F5B6FBF1F605F0F00505EB06158D
:10302000B2FBF0F6B2FBF0F0B0FBF1F06FF018027B
:10303000504306EB800003EB0010B0FBF1F0216879
:1030400000F00F002844886070BD00000038014087
:103050002DE9F041984617460E460446069D1DE0B0
:10306000681C1BD02DB1FEF719F9A0EB0800A8428F
:1030700014D92068C16821F4D071C1602068416909
:1030800021F001014161202084F83D0084F83E00D8
:10309000002084F83C000320BDE8F081206800682F
:1030A00036EA000004D00020B842D9D00020F3E76F
:1030B0000120F9E70148FFF757BA0000A0010020FE
:1030C000FEE70907090E002804DB00F1E02080F884
:1030D0000014704700F00F0000F1E02080F8141D8C
:1030E000704710B586B00446FDF7C2FF00200121ED
:1030F00002940090CDE9031004A96846FDF71AFF79
:1031000010B1FDF76BFF04E0FDF768FF0498401C69
:1031100000D0012006B010BD2DE9F041FEF7CCF83B
:10312000FFF7F9FDFFF76EFCFFF74EFCFFF736FDEA
:10313000FFF70AFCFFF7A6FCFFF7C8FCFFF7FAFC55
:103140002C4C606A06E000BFFFF7CBFF606A00F519
:1031500080606062A1698842F6D32748FFF72EF8A5
:103160002648FDF745FA23490322C91C2348FDF7E9
:1031700005FC012211022248FEF78AF801260227E7
:103180004FF6FF752078012804D1277066701A4821
:10319000FFF74AF860780128F4D16069E168884255
:1031A0000CD200F03DF813492B460322891D154827
:1031B000FFF76EFB6069001D6061EFE70D492B466C
:1031C000042228310F48FFF763FB206A0CE000BFA0
:1031D00000F01AF807492B46042230310948FFF75E
:1031E00057FB206A001D2062A1698842F0D30020AD
:1031F000BDE8F081000000205801002044000020BC
:1032000000080140A001002000680449020A8870FB
:10321000CA70020C0A70000E48707047300000201F
:1032200000680349020A88704A70000C08707047F1
:103230000600002070B50C460546FDF719FF224632
:10324000002329460220FDF7D3FEBDE87040FDF7BC
:10325000C5BE0000000000000000010203040607D4
:103260000809000000000102030400008C3200087D
:1032700000000020440000006C010008D03200086B
:1032800044000020640800008801000800000000DD
:10329000000000000000000000A40008004000083A
:1032A0000040000800D6000800A4000800A40008A0
:1032B00000400008123456780000000000000000B2
:1032C0000100000010000000000000000024F400D5
:0400000508000131BD
:00000001FF
